{
  "_format": "hh-sol-artifact-1",
  "contractName": "Escrow",
  "sourceName": "contracts/Escrow.sol",
  "abi": [
    {
      "inputs": [],
      "stateMutability": "nonpayable",
      "type": "constructor"
    },
    {
      "inputs": [
        {
          "internalType": "address",
          "name": "owner",
          "type": "address"
        }
      ],
      "name": "OwnableInvalidOwner",
      "type": "error"
    },
    {
      "inputs": [
        {
          "internalType": "address",
          "name": "account",
          "type": "address"
        }
      ],
      "name": "OwnableUnauthorizedAccount",
      "type": "error"
    },
    {
      "inputs": [],
      "name": "ReentrancyGuardReentrantCall",
      "type": "error"
    },
    {
      "anonymous": false,
      "inputs": [
        {
          "indexed": true,
          "internalType": "uint256",
          "name": "transactionId",
          "type": "uint256"
        }
      ],
      "name": "ItemDelivered",
      "type": "event"
    },
    {
      "anonymous": false,
      "inputs": [
        {
          "indexed": true,
          "internalType": "address",
          "name": "previousOwner",
          "type": "address"
        },
        {
          "indexed": true,
          "internalType": "address",
          "name": "newOwner",
          "type": "address"
        }
      ],
      "name": "OwnershipTransferred",
      "type": "event"
    },
    {
      "anonymous": false,
      "inputs": [
        {
          "indexed": true,
          "internalType": "uint256",
          "name": "transactionId",
          "type": "uint256"
        }
      ],
      "name": "PaymentDeposited",
      "type": "event"
    },
    {
      "anonymous": false,
      "inputs": [
        {
          "indexed": true,
          "internalType": "uint256",
          "name": "transactionId",
          "type": "uint256"
        }
      ],
      "name": "PaymentRefunded",
      "type": "event"
    },
    {
      "anonymous": false,
      "inputs": [
        {
          "indexed": true,
          "internalType": "uint256",
          "name": "transactionId",
          "type": "uint256"
        },
        {
          "indexed": false,
          "internalType": "address",
          "name": "buyer",
          "type": "address"
        },
        {
          "indexed": false,
          "internalType": "address",
          "name": "seller",
          "type": "address"
        },
        {
          "indexed": false,
          "internalType": "uint256",
          "name": "amount",
          "type": "uint256"
        }
      ],
      "name": "TransactionCreated",
      "type": "event"
    },
    {
      "inputs": [
        {
          "internalType": "uint256",
          "name": "_transactionId",
          "type": "uint256"
        }
      ],
      "name": "confirmDelivery",
      "outputs": [],
      "stateMutability": "nonpayable",
      "type": "function"
    },
    {
      "inputs": [
        {
          "internalType": "address",
          "name": "_seller",
          "type": "address"
        },
        {
          "internalType": "uint256",
          "name": "_amount",
          "type": "uint256"
        }
      ],
      "name": "createTransaction",
      "outputs": [
        {
          "internalType": "uint256",
          "name": "",
          "type": "uint256"
        }
      ],
      "stateMutability": "nonpayable",
      "type": "function"
    },
    {
      "inputs": [
        {
          "internalType": "uint256",
          "name": "_transactionId",
          "type": "uint256"
        }
      ],
      "name": "depositPayment",
      "outputs": [],
      "stateMutability": "payable",
      "type": "function"
    },
    {
      "inputs": [],
      "name": "owner",
      "outputs": [
        {
          "internalType": "address",
          "name": "",
          "type": "address"
        }
      ],
      "stateMutability": "view",
      "type": "function"
    },
    {
      "inputs": [
        {
          "internalType": "uint256",
          "name": "_transactionId",
          "type": "uint256"
        }
      ],
      "name": "refundPayment",
      "outputs": [],
      "stateMutability": "nonpayable",
      "type": "function"
    },
    {
      "inputs": [],
      "name": "renounceOwnership",
      "outputs": [],
      "stateMutability": "nonpayable",
      "type": "function"
    },
    {
      "inputs": [],
      "name": "transactionCount",
      "outputs": [
        {
          "internalType": "uint256",
          "name": "",
          "type": "uint256"
        }
      ],
      "stateMutability": "view",
      "type": "function"
    },
    {
      "inputs": [
        {
          "internalType": "uint256",
          "name": "",
          "type": "uint256"
        }
      ],
      "name": "transactions",
      "outputs": [
        {
          "internalType": "address",
          "name": "buyer",
          "type": "address"
        },
        {
          "internalType": "address",
          "name": "seller",
          "type": "address"
        },
        {
          "internalType": "uint256",
          "name": "amount",
          "type": "uint256"
        },
        {
          "internalType": "enum Escrow.State",
          "name": "state",
          "type": "uint8"
        }
      ],
      "stateMutability": "view",
      "type": "function"
    },
    {
      "inputs": [
        {
          "internalType": "address",
          "name": "newOwner",
          "type": "address"
        }
      ],
      "name": "transferOwnership",
      "outputs": [],
      "stateMutability": "nonpayable",
      "type": "function"
    }
  ],
  "bytecode": "0x608060405234801561001057600080fd5b50338061003757604051631e4fbdf760e01b81526000600482015260240160405180910390fd5b6100408161004a565b506001805561009a565b600080546001600160a01b038381166001600160a01b0319831681178455604051919092169283917f8be0079c531659141344cd1fd0a4f28419497f9722a3daafe3b4186f6b6457e09190a35050565b6108e9806100a96000396000f3fe6080604052600436106100865760003560e01c80639ace38c2116100595780639ace38c214610110578063b77bf60014610174578063f2fde38b1461018a578063f63813f4146101aa578063fd84cb97146101ca57600080fd5b80631e7f8f0f1461008b5780636b749c47146100be578063715018a6146100d35780638da5cb5b146100e8575b600080fd5b34801561009757600080fd5b506100ab6100a6366004610784565b6101ea565b6040519081526020015b60405180910390f35b6100d16100cc3660046107ae565b6102f9565b005b3480156100df57600080fd5b506100d1610468565b3480156100f457600080fd5b506000546040516001600160a01b0390911681526020016100b5565b34801561011c57600080fd5b5061016461012b3660046107ae565b600260208190526000918252604090912080546001820154928201546003909201546001600160a01b0391821693909116919060ff1684565b6040516100b594939291906107dd565b34801561018057600080fd5b506100ab60035481565b34801561019657600080fd5b506100d16101a5366004610829565b61047c565b3480156101b657600080fd5b506100d16101c53660046107ae565b6104b7565b3480156101d657600080fd5b506100d16101e53660046107ae565b610590565b60038054600091826101fb8361084b565b9091555050604080516080810182523381526001600160a01b03858116602080840191825283850187815260006060860181815260038054835260029485905297909120865181549087166001600160a01b0319918216178255945160018083018054929098169190961617909555905191840191909155518285018054949593949193909260ff199092169190849081111561029a5761029a6107c7565b021790555050600354604080513381526001600160a01b03871660208201529081018590529091507fe9097a4f4eddc0e5906640fcd9e1193c9db52771536ca4c8b06ab4c40aa045d29060600160405180910390a25060035492915050565b6103016106c1565b600081815260026020526040902080546001600160a01b031633146103665760405162461bcd60e51b815260206004820152601660248201527513db9b1e48189d5e595c8818d85b8819195c1bdcda5d60521b60448201526064015b60405180910390fd5b600060038083015460ff1690811115610381576103816107c7565b146103ce5760405162461bcd60e51b815260206004820181905260248201527f5472616e73616374696f6e206e6f74206177616974696e67207061796d656e74604482015260640161035d565b806002015434146104215760405162461bcd60e51b815260206004820152601860248201527f496e636f7272656374207061796d656e7420616d6f756e740000000000000000604482015260640161035d565b60038101805460ff1916600117905560405182907f49bd70090edab93c612ae021b6f3fa28a2aa80bf732b19d31a90eae8c5125bc190600090a25061046560018055565b50565b6104706106eb565b61047a6000610718565b565b6104846106eb565b6001600160a01b0381166104ae57604051631e4fbdf760e01b81526000600482015260240161035d565b61046581610718565b6104bf6106eb565b6104c76106c1565b6000818152600260205260409020600160038083015460ff16908111156104f0576104f06107c7565b1461050d5760405162461bcd60e51b815260040161035d90610872565b6003818101805460ff19169091179055805460028201546040516001600160a01b03909216916108fc82150291906000818181858888f1935050505015801561055a573d6000803e3d6000fd5b5060405182907fc12258dbc8f5aaf21f9b7ef40fbfb87befc7c46ac42dccc2c5cc565347e56ee690600090a25061046560018055565b6105986106c1565b600081815260026020526040902060018101546001600160a01b031633146106025760405162461bcd60e51b815260206004820181905260248201527f4f6e6c792073656c6c65722063616e20636f6e6669726d2064656c6976657279604482015260640161035d565b600160038083015460ff169081111561061d5761061d6107c7565b1461063a5760405162461bcd60e51b815260040161035d90610872565b60038101805460ff191660029081179091556001820154908201546040516001600160a01b03909216916108fc82150291906000818181858888f1935050505015801561068b573d6000803e3d6000fd5b5060405182907fd2f1cdd76b4e7bfba9c07af47c5c4f187ffbbd992b4fa1afce4df6a00a166e8590600090a25061046560018055565b6002600154036106e457604051633ee5aeb560e01b815260040160405180910390fd5b6002600155565b6000546001600160a01b0316331461047a5760405163118cdaa760e01b815233600482015260240161035d565b600080546001600160a01b038381166001600160a01b0319831681178455604051919092169283917f8be0079c531659141344cd1fd0a4f28419497f9722a3daafe3b4186f6b6457e09190a35050565b80356001600160a01b038116811461077f57600080fd5b919050565b6000806040838503121561079757600080fd5b6107a083610768565b946020939093013593505050565b6000602082840312156107c057600080fd5b5035919050565b634e487b7160e01b600052602160045260246000fd5b6001600160a01b0385811682528416602082015260408101839052608081016004831061081a57634e487b7160e01b600052602160045260246000fd5b82606083015295945050505050565b60006020828403121561083b57600080fd5b61084482610768565b9392505050565b60006001820161086b57634e487b7160e01b600052601160045260246000fd5b5060010190565b60208082526021908201527f5472616e73616374696f6e206e6f74206177616974696e672064656c697665726040820152607960f81b60608201526080019056fea2646970667358221220694d79bc8846c964a546b8ddcfc9394982a79e201df43560eb3c1186d18cdf2164736f6c63430008140033",
  "linkReferences": {},
  "deployedLinkReferences": {}
}